:100003002020535742202050524F4A454B54202022
:10001300207C2020205F5B40405D2F202020207C1F
:10002300207C202020206420206209202020207CA6
:10003300204D41544555535A202047414A444120BD
:10004300002020535742202050524F4A454B542002
:1000530020202F2020205F5B40405D5F2020202058
:1000630029202F2020202064202062092020202006
:1000730029204D41544555535A202047414A444174
:1000830020002020535742202050524F4A454B54C2
:100093002020202D2020205F5B40405D2F2020204A
:1000A300202D202D202020206420206209202020C4
:1000B300202D204D41544555535A202047414A4451
:1000C3004120002020535742202050524F4A454B95
:1000D30054202020292020205F5B40405D5F2020AA
:1000E30020202F2029202020206420206209202086
:1000F30020202F204D41544555535A202047414A33
:10010300444120002020535742202050524F4A455B
:100113004B542020207C2020205F5B40405D2F201B
:100123002020207C207C20202020642020620920A5
:100133002020207C204D41544555535A20204741CF
:050143004A44412000C8
:1004640007084C4F4144494E47011C58021A2E209C
:0D0474000B0F30313233343536373839252F
:0C04AF00E4FFE4FE0EBE32FC0FBF32F68C
:0104BB00221E
:07049B00D2A61204A2C2A6C2
:0C04A200E4FFE4FE0EBE0AFC0FBF0AF6E9
:0104AE00222B
:0C04BC00E4FFE4FE0EBE0FFC0FBF0FF6C5
:0104C8002211
:0C04C900E4FFE4FE0EBE64FC0FBF64F60E
:0104D5002204
:1003A300C2A4C2A5EFC4540F53A0F042A0D2A6C268
:1003B300A6EF540F53A0F042A0D2A6C2A643A00FAB
:1003C300D2A5C2A4D20030000ED2A6A2A39200C22C
:0703D300A6D2A6C2A680EF2E
:0103DA002200
:1003DB00D2A4C2A5EFC4540F53A0F042A0D2A6C220
:1003EB00A6EF540F53A0F042A0D2A6C2A643A00F73
:1003FB00D2A5C2A4D20130010ED2A6A2A39201C2F1
:07040B00A6D2A6C2A680EFF5
:0104120022C7
:0704D6007F02120413AF1AAC
:0304DD000203DB3C
:10041300AC07BC0107ED247FFF1203A3BC0207ED69
:1004230024BFFF1203A3BC0307ED248FFF1203A312
:0B043300BC0407ED24CFFF1203A3223E
:06043E008B248A258926AB
:100444007D011204131DAB240526E526AA2570029E
:0F045400052514F9120482FF1204DD0DBD10E717
:010463002276
:10032F008B218A2289237F0112043EAB21E52324EE
:10033F0010F9E43522FA7F0212043EAB21E52324A3
:10034F0020F9E43522FA7F0312043EAB21E5232482
:0B035F0030F9E43522FA7F0402043E6E
:10014800E4FBFAF9F5217D017F011204137F2D12DA
:1001580004DD0ABA10F77D047F02120413EBC3947E
:1001680007500F74082BF8E6FF1204DD1204C90BC0
:1001780080EBE4FAFBAF1A1204DD1204C90ABA03D1
:10018800F4E4FA7B017D097F03120413AF0F120414
:10019800DDAF191204DD7D0B7F02120413AF1B12B1
:1001A80004DDE4F90ABA03F502022DEBC3940A5000
:1001B8007A7D087F03120413740F2BF8E6FF1204EC
:1001C800DDEB2403FD7F04120413AF1C1204DDE9E8
:1001D800700DE52170097D0B1204D67901801EB9D6
:1001E800010DE52170097D0C1204D67902800EB943
:1001F8000210E521700C7D0D1204D67903752101DA
:10020800801FB9031CE52170187D0B7F02120413AF
:10021800AF1B1204DDAF1B1204DDAF1B1204DDE4BB
:10022800F90BE4F5211204C90201B37D077F03121B
:100238000413AF101204DDAF0F1204DD7D0D7F042F
:10024800120413AF1C1204DD1D1204D61204C9AF28
:070258001A1204DD0204AFDD
:10036A001204AF75A083D2A61204A2C2A61204BCBC
:10037A0012049B12049BC2A012049B7F281203A39F
:10038A007F011203A37F081203A37F0C1203A37F2A
:09039A00061203A37F010203A374
:1002EB0012036A1201487BFF7A00790312032F1263
:1002FB0004C97BFF7A00794412032F1204C97BFFD8
:10030B007A00798512032F1204C97BFF7A0079C614
:10031B0012032F1204C97BFF7A01790712032F12E4
:04032B0004C980C2BF
:0300000002025F9A
:0C025F00787FE4F6D8FD7581260202A627
:10048200BB010689828A83E0225002E722BBFE0278
:09049200E32289828A83E49322AB
:10026B000202EBE493A3F8E493A34003F68001F2BC
:10027B0008DFF48029E493A3F85407240CC8C33394
:10028B00C4540F4420C8834004F456800146F6DF63
:10029B00E4800B0102040810204080900464E47E8B
:1002AB00019360BCA3FF543F30E509541FFEE49358
:1002BB00A360010ECF54C025E060A840B8E493A31F
:1002CB00FAE493A3F8E493A3C8C582C8CAC583CA4A
:1002DB00F0A3C8C582C8CAC583CADFE9DEE780BE02
:01048100007A
:00000001FF
