:0C0147003F065B4F666D7D077F6F7606FC
:03015A00010C0095
:0C013A00E4FFE4FE0EBEC8FC0FBF96F60A
:010146002296
:03001B000200EDF3
:1000ED00C0E0C083C082C0D0E50C7011E50A90015C
:1000FD00479390FE00F0E5089001478014E50CB49D
:10010D000114E50B9001519390FE00F0E50990016B
:0F011D00519390FD00F0D0D0D082D083D0E0324B
:10000600E4F58853890F438920F58DF58BD2ABD261
:04001600AFD28E22B5
:0300030002012CCB
:0E012C00C2A8750A01750800750C00D2A83231
:07015300D288D2A8D2AF222E
:1000AA00120006120153750A01E4F50812013AE535
:1000BA0008D394004009E4F50CF50A150880EDE52B
:1000CA0008700EE50A600AE4F50CF50A750809805D
:1000DA00DBE50870D7E50A70D3750C01F50B7509D5
:0300EA000180C9C9
:0300000002001EDD
:0C001E00787FE4F6D8FD75810C020065C7
:10002A000200AAE493A3F8E493A34003F68001F242
:10003A0008DFF48029E493A3F85407240CC8C333D7
:10004A00C4540F4420C8834004F456800146F6DFA6
:10005A00E4800B010204081020408090015AE47EDB
:10006A00019360BCA3FF543F30E509541FFEE4939B
:10007A00A360010ECF54C025E060A840B8E493A362
:10008A00FAE493A3F8E493A3C8C582C8CAC583CA8D
:10009A00F0A3C8C582C8CAC583CADFE9DEE780BE45
:01015D0000A1
:00000001FF
