:1001CB007FBFDFEFE7EBEDD7DBDDB7BBBD777B7D2C
:0C01DB003132333435363738392A3023BE
:03020B00010A00E5
:1001AD00C2801201EED2801201EEC2801201EED297
:0101BD0080C1
:0C01BE00E4FFE4FE0EBE96FC0FBF96F6B8
:0101CA002212
:0701E700C2801201EED2807C
:0C01EE00E4FFE4FE0EBE46FC0FBF46F628
:0101FA0022E2
:0201FB00AD074E
:0D01FD00E4FCECC39D50061201E70C80F5F8
:01020A0022D1
:10018C00E4FEEE9001CF936F6009EEC3940C500324
:10019C000E80EF7F0CEE640C6006EE9001DB93FF9B
:0101AC002230
:10000300E4FBF9F509AF2012018CAA07EA640C702E
:10001300030200CBBA31047F01803DBA32047F0270
:100023008036BA33047F03802FBA34047F048028D8
:10003300BA35047F058021BA36047F06801ABA37A1
:10004300047F078013BA38047F08800CBA39047F11
:10005300098005BA3009E4FF1201FB050A800DBAD5
:100063002A0479018006BA2303750901E964017042
:1000730025E50A6409701FEBC39404500EC2801275
:1000830001BE1201B91201EE0B80ECE4FB1201E791
:100093000BBB02F9802AE964017014E50A64096064
:1000A3000EEBC3940250061201AD0B80F48011E5F0
:1000B30009B4010FEBC3940150061201AD0B80F498
:0800C300E4F50AEA24FF92B102
:0100CB002212
:10015800E4F508D208E5089001CB93F5A085A02026
:10016800A20282038201400A3008EA120003C20890
:1001780080E3E508C39403500405088003E4F50808
:04018800D20880D148
:030000000200CC2F
:0C00CC00787FE4F6D8FD75812102011355
:1000D800020158E493A3F8E493A34003F68001F2E5
:1000E80008DFF48029E493A3F85407240CC8C33329
:1000F800C4540F4420C8834004F456800146F6DFF8
:10010800E4800B010204081020408090020BE47E7A
:10011800019360BCA3FF543F30E509541FFEE493EC
:10012800A360010ECF54C025E060A840B8E493A3B3
:10013800FAE493A3F8E493A3C8C582C8CAC583CADE
:10014800F0A3C8C582C8CAC583CADFE9DEE780BE96
:01020E0000EF
:00000001FF
